:020000040000FA
:100000000C9463000C948B000C948B000C943004C3
:100010000C9430040C9430040C948B000C948B00E2
:100020000C948B000C948B000C948B000C948B0024
:100030000C948B000C948B000C948B000C948B0014
:100040000C94E6030C948B000C94B4030C948E0374
:100050000C948B000C948B000C948B000C948B00F4
:100060000C948B000C948B0000000008000201002F
:100070000003040700000000000000000000000072
:1000800023002600290000000000240027002A0089
:1000900000000000250028002B00040404040404D0
:1000A0000404020202020202030303030303010227
:1000B00004081020408001020408102001020408F6
:1000C0001020F404D00711241FBECFEFD8E0DEBF0C
:1000D000CDBF11E0A0E0B1E0E6E9F4E102C0059097
:1000E0000D92AC33B107D9F722E0ACE3B1E001C027
:1000F0001D92A934B207E1F710E0C2E6D0E004C0D7
:100100002197FE010E94310AC136D107C9F70E942A
:10011000E3050C943E0A0C9400008F929F92AF92DC
:10012000BF92CF92DF92EF92FF926B017C018FB76B
:10013000F8948090850190908601A0908701B090FE
:1001400088018FBF8091260290912702DC01ED91FA
:10015000FC910084F185E02D09950097A1F42FB75B
:10016000F8944091850150918601609187017091CA
:1001700088012FBF481959096A097B094C155D058B
:100180006E057F05F8F2FF90EF90DF90CF90BF9063
:10019000AF909F908F900895AF92BF92CF92DF92D1
:1001A000EF92FF920F931F93CF93DF936C017B012C
:1001B0008B01040F151FEB015E01AE18BF08C017BD
:1001C000D10759F06991D601ED91FC910190F08130
:1001D000E02DC6010995892B79F7C501DF91CF91F3
:1001E0001F910F91FF90EF90DF90CF90BF90AF9055
:1001F0000895FC01538D448D252F30E0842F90E02D
:10020000821B930B541710F0CF9608950197089511
:10021000FC01918D828D981761F0A28DAE0FBF2FDA
:10022000B11D5D968C91928D9F5F9F73928F90E030
:1002300008958FEF9FEF0895FC01918D828D98179F
:1002400031F0828DE80FF11D858D90E008958FEFDC
:100250009FEF0895FC01918D228D892F90E0805CA5
:100260009F4F821B91098F739927089589E891E028
:100270000E942A0121E0892B09F420E0822F0895B1
:1002800080E090E0892B29F00E94360181110C94C6
:1002900000000895FC01A48DA80FB92FB11DA35A29
:1002A000BF4F2C91848D90E001968F739927848F96
:1002B000A689B7892C93A089B1898C9183708064B9
:1002C0008C93938D848D981306C00288F389E02D5A
:1002D00080818F7D80830895EF92FF920F931F930B
:1002E000CF93DF93EC0181E0888F9B8D8C8D9813E9
:1002F0001AC0E889F989808185FF15C09FB7F894F5
:10030000EE89FF896083E889F98980818370806440
:1003100080839FBF81E090E0DF91CF911F910F918B
:10032000FF90EF900895F62E0B8D10E00F5F1F4F9A
:100330000F731127E02E8C8D8E110CC00FB607FCA9
:10034000FACFE889F989808185FFF5CFCE010E9437
:100350004A01F1CFEB8DEC0FFD2FF11DE35AFF4F5A
:10036000F0829FB7F8940B8FEA89FB8980818062C5
:10037000CFCFCF93DF93EC01888D8823B9F0AA8982
:10038000BB89E889F9898C9185FD03C0808186FD50
:100390000DC00FB607FCF7CF8C9185FFF2CF80819F
:1003A00085FFEDCFCE010E944A01E9CFDF91CF91C9
:1003B00008953FB7F89480917D0190917E01A091BE
:1003C0007F01B091800126B5A89B05C02F3F19F091
:1003D0000196A11DB11D3FBFBA2FA92F982F8827C5
:1003E000BC01CD01620F711D811D911D42E0660FA0
:1003F000771F881F991F4A95D1F708958F929F9272
:10040000AF92BF92CF92DF92EF92FF924B015C01CD
:100410000E94D9016B017C010E94D9016C197D09F0
:100420008E099F09683E734081059105A8F321E07C
:10043000821A9108A108B10888EEC80E83E0D81E80
:10044000E11CF11C81149104A104B10429F7FF906F
:10045000EF90DF90CF90BF90AF909F908F900895D6
:1004600020918301309184012817390771F490910C
:10047000810180918201981741F0E0918101F0E0C3
:10048000E45CFE4F808190E008958FEF9FEF089528
:100490000895EF92FF920F931F93CF93DF93DC01A8
:1004A0005C96ED90FC905D97E114F10479F481E0A5
:1004B00090E013969C938E93129790E080E0DF91EA
:1004C000CF911F910F91FF90EF9008955196ED916C
:1004D000FC91529750968C915097982F90950FB70A
:1004E0005E962C915E97122F127021FD6095F89404
:1004F0002081112319F1282B2083E7012197F1F79F
:1005000028E0462F50E0308160FF1AC0382B30833E
:10051000E7012197F1F7BA0175956795215089F7A1
:10052000112381F08081892380830FBF5C968D9198
:100530009C910197F1F781E090E0C1CF2923DCCFB6
:100540003923E5CF9081892BEFCF20918301309122
:1005500084012817390761F480918201209181017B
:1005600090E0805C9F4F821B91098F7399270895BB
:1005700090E080E008952091830130918401281754
:100580003907B9F49091810180918201981789F01F
:10059000E0918101F0E0E45CFE4F808120918101D7
:1005A00030E02F5F3F4F2F7333272093810190E07E
:1005B00008958FEF9FEF089590E080E00895CF9227
:1005C000DF92EF92FF920F931F93CF93DF93C82E8A
:1005D000D62ED42F7901EDEFE80FC0E0E03120F402
:1005E000F0E0EC5FFE4FC0816AE070E080E090E0F8
:1005F0000E948D00A0912602B0912702ED91FC91FE
:100600001197892B31F00284F385E02DCD010995F6
:10061000EBCF0190F081E02D6EE7CD01099580913F
:10062000260290912702DC01ED91FC910190F0816E
:10063000E02D62E06C0F09958091260290912702CF
:10064000DC01ED91FC910190F081E02D6C2D09957C
:10065000CC23D1F08091260290912702DC01ED910C
:10066000FC910190F081E02D6D2D0995C23061F46F
:100670008091260290912702DC01ED91FC9101907E
:10068000F081E02D6D2F099580912602909127022F
:10069000DC01ED91FC910190F081E02D6FEE099568
:1006A000E114F10449F00115110531F0A80170E0E1
:1006B00060E0C7010E94370A68EE73E080E090E0D6
:1006C0000E948D00D0E0C0E00150110966E970E0A1
:1006D00080E090E00E948D00892BB9F08091260285
:1006E00090912702DC01ED91FC910284F385E02DCD
:1006F0000995E114F10451F3C017D10738F7F70158
:10070000EC0FFD1F80832196E1CFDF91CF911F91E8
:100710000F91FF90EF90DF90CF9008951F920F926E
:100720000FB60F9211242F933F934F935F936F93C4
:100730007F938F939F93AF93BF93EF93FF9389E83A
:1007400091E00E944A01FF91EF91BF91AF919F917B
:100750008F917F916F915F914F913F912F910F906A
:100760000FBE0F901F9018951F920F920FB60F9209
:1007700011242F938F939F93EF93FF93E09199010F
:10078000F0919A018081E0919F01F091A00182FD9A
:100790001BC090818091A2018F5F8F732091A30174
:1007A000821741F0E091A201F0E0E757FE4F958FEC
:1007B0008093A201FF91EF919F918F912F910F90C4
:1007C0000FBE0F901F9018958081F4CF1F920F924B
:1007D0000FB60F9211242F933F938F939F93AF9354
:1007E000BF938091850190918601A0918701B0917E
:1007F000880130917C0123E0230F2D3758F50196B5
:10080000A11DB11D20937C018093850190938601E9
:10081000A0938701B093880180917D0190917E0122
:10082000A0917F01B09180010196A11DB11D80931F
:100830007D0190937E01A0937F01B0938001BF91D1
:10084000AF919F918F913F912F910F900FBE0F907D
:100850001F90189526E8230F0296A11DB11DD2CF37
:100860001F920F920FB60F9211242F933F934F9325
:100870005F936F937F938F939F93AF93BF93EF9308
:10088000FF93E0918301F0918401309749F0A685B0
:10089000B7858585968D91FF14C09C918923A1F41D
:1008A000FF91EF91BF91AF919F918F917F916F9148
:1008B0005F914F913F912F910F900FBE0F901F901E
:1008C00018959C91892361F7A389B4899C918589A6
:1008D000809589238C93868997890197F1F7608D9C
:1008E000718DA685B785558538E020E0CB0101974D
:1008F000F1F7822F90E095958795282F4C9145230D
:1009000009F02068315091F7868D81FD2095809106
:10091000820190E001968F739927309181013817F9
:1009200099F0A0918201B0E0A45CBE4F2C9380931B
:100930008201828D938D0197F1F7A389B4898C91FF
:100940009589892B8C93ACCF868D8160868FF1CF72
:1009500090E0FC01E859FF4F2491FC01E255FF4F64
:100960003491FC01E656FF4FE491EE23C9F02223B7
:1009700039F0233001F1A8F4213019F1223029F1A6
:10098000F0E0EE0FFF1FE057FF4FA591B4918FB736
:10099000F894EC91611126C030953E233C938FBFB3
:1009A00008952730A9F02830C9F0243049F7809104
:1009B00080008F7D03C0809180008F7780938000BE
:1009C000DFCF84B58F7784BDDBCF84B58F7DFBCF40
:1009D0008091B0008F778093B000D2CF8091B0002B
:1009E0008F7DF9CF3E2BDACF0F931F93CF93DF93F9
:1009F00010928C0110928B0188EE93E0A0E0B0E0A1
:100A000080938D0190938E01A0938F01B0939001FC
:100A100028E131E030938A012093890125EC30E010
:100A2000309396012093950124EC30E030939801A7
:100A30002093970120EC30E030939A0120939901A4
:100A400021EC30E030939C0120939B0122EC30E0BC
:100A500030939E0120939D0126EC30E03093A0015D
:100A600020939F011092A2011092A3011092A40161
:100A70001092A50110922B0210922A0280932C0250
:100A800090932D02A0932E02B0932F028AE291E060
:100A9000909329028093280210923F0210923E0206
:100AA00010924102109240021092430210924202B0
:100AB0001092450210924402609146026E7F6D7F53
:100AC000609346026695617081E0682786E00E9427
:100AD000A80444EB50E0FA01649180EA90E0FC0144
:100AE0002491222399F030E0220F331FF901EA57B5
:100AF000FF4FA591B491F901E057FF4F2591349133
:100B00002FB7F8943C91632B6C932FBFFA0144915B
:100B100040933802FC018491E82FF0E0EE0FFF1FB4
:100B2000E057FF4F8591949190933A028093390258
:100B300006EB10E0F8012491C2EAD0E0FE018491B6
:100B40008823C9F090E0880F991FFC01EA57FF4FF6
:100B5000A591B491FC01E057FF4F459154913FB7E7
:100B6000F8949C91822F809598239C93FA01908110
:100B7000892380833FBF8091460281FD04C061E0EC
:100B800088E00E94A80488E080933402F801049170
:100B900000933502FE01C491EC2FF0E0EE0FFF1F31
:100BA000E458FF4F859194919093370280933602D9
:100BB00088E292E09093270280932602DF91CF9102
:100BC0001F910F910895CF93DF93CDB7DEB7A39711
:100BD0000FB6F894DEBF0FBECDBF789484B58260A7
:100BE00084BD84B5816084BD85B5826085BD85B5D1
:100BF000816085BD80916E00816080936E0010924F
:100C000081008091810082608093810080918100C9
:100C1000816080938100809180008160809380005A
:100C20008091B10084608093B1008091B0008160B8
:100C30008093B00080917A00846080937A008091E4
:100C40007A00826080937A0080917A00816080933C
:100C50007A0080917A00806880937A001092C100B7
:100C6000E0919901F0919A0182E08083E0919501F1
:100C7000F09196011082E0919701F09198018FEC2C
:100C800080831092A101E0919D01F0919E0186E088
:100C90008083E0919B01F0919C0180818061808341
:100CA000E0919B01F0919C01808188608083E091BC
:100CB0009B01F0919C01808180688083E0919B0181
:100CC000F0919C0180818F7D80831092430210926D
:100CD0004202109241021092400210923F02109282
:100CE0003E028DE991E090934502809344029091F9
:100CF0003402963108F047C02DEB30E030933F02CC
:100D000020933E022BE931E03093410220934002D0
:100D10002CE231E03093430220934202209168009C
:100D200084E0983048F031E09E3008F430E081E013
:100D300001C0880F3A95EAF7822B809368002DE670
:100D400030E0983050F02BE630E09E3030F02CE66A
:100D500030E0963110F030E020E030933C022093F8
:100D60003B02292F30E0983008F0E4C081E001C058
:100D7000880F9A95EAF780933D0280914402909102
:100D800045020197F1F78091420290914302892B2D
:100D900049F1E0918301F091840182E0E832F807A3
:100DA00009F1309739F0A389B4899C9185898095A0
:100DB00089238C93809146028E7F80934602109205
:100DC00082011092810188E292E0909384018093E5
:100DD0008301E0913B02F0913C02808190913D02C1
:100DE000892B808310E000E030E020E040E060E00C
:100DF0008CE00E94DF0264EF71E080E090E00E94EE
:100E0000FE0130E020E040E064E686E00E94DF0280
:100E100030E020E040E064E081E10E94DF023AE05F
:100E2000432E512C612C712CFE01B096FBA3EAA33A
:100E30000E943808A30192010E94B9094B015C018C
:100E40007C016B01FFEFCF1ADF0AEF0AFF0AF7FE02
:100E50007EC06DE289E891E00E946C0119A2D50183
:100E6000C40180959095A095B095805D88A3EAA176
:100E7000FBA101900020E9F73197AF018AA19BA166
:100E8000481B590BBE01605E7F4F89E891E00E94CC
:100E9000CC0042E050E068E371E089E891E00E9414
:100EA000CC0064E670E080E090E00E94FE0194E0F7
:100EB000292E312C05E010E09E012F5F3F4F40E0CE
:100EC00060E082E40E94DF0240E150E070E060E018
:100ED000CE0101960E949008662379F0360E2A947E
:100EE0002110E8CF84E0381619F098E03912DFCFEE
:100EF000832D86958695813051F06D2D772710E0F2
:100F000000E030E020E04C2D83E00E94DF0260ED45
:100F100077E080E090E00E94FE01E0E0F0E0EF2B5F
:100F200009F486CF0E943601882309F481CF0E94FC
:100F300000007ECF9E3040F42850310981E001C08E
:100F4000880F2A95EAF717CF2E503109F7CF4601BF
:100F5000570119A28E010F5D1F4FC501B401A301F6
:100F600092010E949709605DF80162938F01FAE097
:100F70008F169104A104B10470F40115110509F450
:100F800088CFF80101900020E9F73197AF01401BAD
:100F9000510BB8017ACF812C912C54018394DDCF71
:100FA0008AE291E090932902809328028091830144
:100FB000909184018852924071F4E0913B02F0914B
:100FC0003C02908180913D0280958923808310921C
:100FD00084011092830108958F929F92AF92BF92E5
:100FE000CF92DF92EF92FF92CF93DF93EC01688173
:100FF00079818A819B81611571058105910521F4B3
:1010000064E279ED8BE597E02DE133EF41E050E0CC
:101010000E94B90949015A019B01AC01A7EAB1E458
:101020000E94D8096B017C01ACEEB4EFA5019401DC
:101030000E94E609C60ED71EE81EF91EF7FE06C07E
:1010400081E0C81AD108E10880E8F80AC882D9828C
:10105000EA82FB82C701B6019F77DF91CF91FF90B3
:10106000EF90DF90CF90BF90AF909F908F900895BA
:101070008F929F92AF92BF92CF92DF92EF92FF92A8
:101080006091000170910101809102019091030132
:10109000611571058105910521F464E279ED8BE517
:1010A00097E02DE133EF41E050E00E94B90949019A
:1010B0005A019B01AC01A7EAB1E40E94D8096B0177
:1010C0007C01ACEEB4EFA50194010E94E609C60EC6
:1010D000D71EE81EF91EF7FE06C081E0C81AD10827
:1010E000E10880E8F80AC0920001D0920101E09284
:1010F0000201F0920301C701B6019F77FF90EF90C4
:10110000DF90CF90BF90AF909F908F9008956093A5
:1011100000017093010180930201909303010895EF
:10112000B0E0A0E0E6E9F8E00C94EC095C016B01AA
:101130007A016115710519F0FB0191838083E11437
:10114000F10449F0C7010297839728F060E070E04E
:10115000CB019CC05E01E5012196F5011081812F34
:1011600090E00E947B09892BA9F71D3209F056C037
:101170002196F501118101E0E114F10409F4AEC0FA
:10118000F0E1EF16F10409F08EC0103341F48881CC
:101190008F7D883509F083C0198122960260E0E1D5
:1011A000EE2EF12C88248A94982CA82CFFE0BF2ED8
:1011B00020E060E070E0CB0127010F2C000C6608F6
:1011C0007708FE0150ED352E310E39E0331538F435
:1011D0003FEB310F3A31A0F549EC342E310E3E147D
:1011E0001F04BCF52F3FB9F086169706A806B9066E
:1011F00070F1A30192010E948709232D30E050E095
:1012000040E0620F731F841F951F621773078407E6
:101210009507E8F021E021961081D3CF1B3221F40D
:10122000E5012296F501118100E0A6CF78E0E72ED6
:10123000F12C88248A94982CA82C6FE1B62EB8CF74
:101240003FE9310F3A3128F439EA332EC7CF2FEF77
:10125000E2CFC114D10431F02223E9F02197F60145
:10126000D183C08300FF07C09095809570956195EC
:101270007F4F8F4F9F4F2F3F49F482E290E0909332
:101280004802809347026FEF7FEFCB01CDB7DEB707
:10129000E1E10C94080A01FFE5CF2297E0CF10E3CB
:1012A000E114F10419F23AE0E316F104E9F080E107
:1012B000E816F10409F473CFE8E0EE16F10409F43E
:1012C000B8CF6FEF7FEFCB0197010F2C000C440BD1
:1012D000550B0E94970949015A016ACF103309F44E
:1012E00056CF9AE0E92EF12C89E9882E982CA82C6B
:1012F00089E1B82E5DCF91110C948409803219F0E8
:1013000089508550C8F70895992788270895DB01EB
:101310008F939F930E94D809BF91AF91A29F800D98
:10132000911DA39F900DB29F900D11240895A1E2ED
:101330001A2EAA1BBB1BFD010DC0AA1FBB1FEE1F4F
:10134000FF1FA217B307E407F50720F0A21BB30B9A
:10135000E40BF50B661F771F881F991F1A9469F716
:1013600060957095809590959B01AC01BD01CF0172
:101370000895052E97FB1EF400940E94D00957FD96
:1013800007D00E94970907FC03D04EF40C94D009B3
:1013900050954095309521953F4F4F4F5F4F0895A1
:1013A00090958095709561957F4F8F4F9F4F0895D1
:1013B0000E94220AA59F900DB49F900DA49F800DBE
:1013C000911D11240895B7FF0C94D8090E94D809E3
:1013D000821B930B08952F923F924F925F926F92D0
:1013E0007F928F929F92AF92BF92CF92DF92EF92B5
:1013F000FF920F931F93CF93DF93CDB7DEB7CA1B36
:10140000DB0B0FB6F894DEBF0FBECDBF09942A8860
:10141000398848885F846E847D848C849B84AA8408
:10142000B984C884DF80EE80FD800C811B81AA8195
:10143000B981CE0FD11D0FB6F894DEBF0FBECDBF60
:10144000ED010895A29FB001B39FC001A39F700D4D
:10145000811D1124911DB29F700D811D1124911DBC
:101460000895EE0FFF1F0590F491E02D0994DC0123
:1014700001C06D9341505040E0F7089510E0C2E67E
:10148000D0E004C0FE010E94310A2196C336D10784
:10149000C9F7F894FFCF010000000200000101002D
:1014A00001000000000001000102000000006C01CA
:1014B000CC00F900B9012A0108011C01000000005C
:1014C0004902CC00DC024802A502BB0230020D0A30
:0214D00000001A
:107800000C94343C0C94513C0C94513C0C94513CE1
:107810000C94513C0C94513C0C94513C0C94513CB4
:107820000C94513C0C94513C0C94513C0C94513CA4
:107830000C94513C0C94513C0C94513C0C94513C94
:107840000C94513C0C94513C0C94513C0C94513C84
:107850000C94513C0C94513C0C94513C0C94513C74
:107860000C94513C0C94513C11241FBECFEFD8E036
:10787000DEBFCDBF11E0A0E0B1E0ECE9FFE702C060
:1078800005900D92A230B107D9F712E0A2E0B1E065
:1078900001C01D92AD30B107E1F70E942D3D0C945F
:1078A000CC3F0C94003C982F959595959595959582
:1078B000905D8F708A307CF0282F295A8091C0000B
:1078C00085FFFCCF9093C6008091C00085FFFCCF60
:1078D0002093C6000895282F205DF0CF982F809127
:1078E000C00085FFFCCF9093C6000895EF92FF92F1
:1078F0000F931F93EE24FF2487018091C00087FD22
:1079000017C00894E11CF11C011D111D81E4E8164B
:1079100082E4F8068FE0080780E0180770F3E09132
:107920000401F091050109958091C00087FFE9CF1E
:107930008091C6001F910F91FF90EF9008950E94D3
:10794000763C982F8091C00085FFFCCF9093C600B5
:1079500091362CF490330CF09053892F089597555D
:10796000892F08951F930E949F3C182F0E949F3CCF
:107970001295107F810F1F9108951F93182F882350
:1079800021F00E94763C1150E1F71F9108951F935A
:10799000182F0E94763C803249F0809103018F5F5E
:1079A000809303018530C1F01F9108958091C0003C
:1079B00085FFFCCF84E18093C6008091C00085FFE5
:1079C000FCCF1093C6008091C00085FFFCCF80E102
:1079D0008093C6001F910895E0910401F091050184
:1079E00009951F9108950E94763C803241F0809164
:1079F00003018F5F80930301853081F008958091AA
:107A0000C00085FFFCCF84E18093C6008091C00058
:107A100085FFFCCF80E18093C6000895E0910401CA
:107A2000F09105010995089540E951E08823A1F0FE
:107A30002D9A28EE33E0FA013197F1F721503040CA
:107A4000D1F72D9828EE33E0FA013197F1F7215064
:107A50003040D1F7815061F708953F924F925F9285
:107A60006F927F928F929F92AF92BF92CF92DF924E
:107A7000EF92FF920F931F93CF93DF93000080E16B
:107A80008093C4001092C50088E18093C10086E015
:107A90008093C2005098589A259A81E00E94143D24
:107AA00024E1F22E9EE1E92E85E9D82E0FE0C02ECA
:107AB00010E1B12EAA24A394B1E49B2EA6E58A2E50
:107AC000F2E57F2EE0E26E2E79E4572E63E5462E36
:107AD00050E5352E0E94763C8033B1F18133B9F107
:107AE000803409F46FC0813409F476C0823409F41B
:107AF00085C0853409F488C0803531F1823521F1A3
:107B0000813511F1853509F485C0863509F48DC0BC
:107B1000843609F496C0843709F403C1853709F423
:107B200072C1863709F466C0809103018F5F80932C
:107B30000301853079F6E0910401F0910501099582
:107B40000E94763C803351F60E94F33CC3CF0E94E2
:107B5000763C803249F78091C00085FFFCCFF092DF
:107B6000C6008091C00085FFFCCF9092C600809136
:107B7000C00085FFFCCF8092C6008091C00085FFC9
:107B8000FCCF7092C6008091C00085FFFCCF609250
:107B9000C6008091C00085FFFCCF5092C600809146
:107BA000C00085FFFCCF4092C6008091C00085FFD9
:107BB000FCCF3092C6008091C00085FFFCCFB09210
:107BC000C60088CF0E94763C863808F4BDCF0E945C
:107BD000763C0E94F33C7ECF0E94763C803809F4CC
:107BE0009CC0813809F40BC1823809F43CC1883942
:107BF00009F48FC080E00E94C73C6CCF84E10E94F2
:107C0000BD3C0E94F33C66CF85E00E94BD3C0E94D3
:107C1000F33C60CF0E94763C809306010E94763C44
:107C2000809307010E94F33C55CF0E94763C80333D
:107C300009F41DC183E00E94BD3C80E00E94C73C66
:107C400049CF0E94763C809309020E94763C809343
:107C5000080280910C028E7F80930C020E94763C79
:107C6000853409F415C18091080290910902892B8D
:107C700089F000E010E00E94763CF801E85FFE4FDA
:107C800080830F5F1F4F80910802909109020817AF
:107C9000190788F30E94763C803209F045CF809125
:107CA0000C0280FF01C16091060170910701660F0F
:107CB000771F7093070160930601A0910802B091AD
:107CC00009021097C9F0E8E0F1E09B01AD014E0F09
:107CD0005F1FF999FECF32BD21BD819180BDFA9A17
:107CE000F99A2F5F3F4FE417F50799F76A0F7B1F4B
:107CF00070930701609306018091C00085FFFCCF5F
:107D0000F092C6008091C00085FFFCCFB092C60003
:107D1000E1CE83E00E94C73CDDCE82E00E94C73CFA
:107D2000D9CE0E94763C809309020E94763C8093D3
:107D300008028091060190910701880F991F909386
:107D40000701809306010E94763C853409F4A6C0A1
:107D500080910C028E7F80930C020E94763C8032D0
:107D600009F0B8CE8091C00085FFFCCFF092C6002C
:107D7000609108027091090261157105B9F140E046
:107D800050E080910C02A82FA170B82FB27011C0E2
:107D9000BB2309F45CC0E0910601F0910701319624
:107DA000F0930701E09306014F5F5F4F46175707B7
:107DB000E8F4AA2369F3F999FECF209106013091E6
:107DC000070132BD21BDF89A90B58091C00085FFB2
:107DD000FCCF9093C6002F5F3F4F30930701209355
:107DE00006014F5F5F4F4617570718F38091C00099
:107DF00085FDE5CE8091C00085FFF8CFE0CE81E023
:107E00000E94C73C67CE0E94763C803209F08CCE3F
:107E10008091C00085FFFCCFF092C6008091C00029
:107E200085FFFCCFE092C6008091C00085FFFCCFAB
:107E3000D092C6008091C00085FFFCCFC092C600E2
:107E40008091C00085FFFCCFB092C60043CEE09188
:107E50000601F091070194918091C00085FFFCCF4D
:107E60009093C6009CCF80E10E94C73C33CE0E9415
:107E7000763C0E94763C182F0E94763C112309F430
:107E800083C0113009F484C08FE00E94C73C22CE29
:107E900080910C02816080930C02E5CE80910C02EF
:107EA000816080930C0259CF809107018823880F4D
:107EB000880B8A2180930B02809106019091070123
:107EC000880F991F90930701809306018091080203
:107ED00080FF09C080910802909109020196909359
:107EE000090280930802F894F999FECF1127E091D6
:107EF0000601F0910701C8E0D1E08091080290915D
:107F00000902103091F40091570001700130D9F34B
:107F100003E000935700E89500915700017001308D
:107F2000D9F301E100935700E89509901990009169
:107F3000570001700130D9F301E000935700E89534
:107F40001395103498F011270091570001700130FB
:107F5000D9F305E000935700E895009157000170B0
:107F60000130D9F301E100935700E895329602976A
:107F700009F0C7CF103011F00296E5CF112480919F
:107F8000C00085FFB9CEBCCE8EE10E94C73CA2CD19
:0E7F900085E90E94C73C9ECDF894FFCF80008B
:00000001FF
