:100000000C9462000C948A000C948A000C948A0070
:100010000C948A000C948A000C948A000C948A0038
:100020000C948A000C948A000C948A000C948A0028
:100030000C948A000C948A000C948A000C948A0018
:100040000C9490020C948A000C945E020C9438027A
:100050000C948A000C948A000C948A000C948A00F8
:100060000C948A000C948A000000000023002600F3
:10007000290000000008000201000003040700003E
:1000800000000000000000000000250028002B00F8
:1000900000000000240027002A00040404040404D3
:1000A0000404020202020202030303030303010227
:1000B00004081020408001020408102001020408F6
:1000C0001020B60311241FBECFEFD8E0DEBFCDBF96
:1000D00011E0A0E0B1E0E6EDF7E002C005900D927E
:1000E000A433B107D9F721E0A4E3B1E001C01D9228
:1000F000AE3DB207E1F710E0C2E6D0E004C02197C0
:10010000FE010E94E303C136D107C9F70E94DA025B
:100110000C94E9030C940000CF93DF9390E0FC0172
:10012000E255FF4F249186569F4FFC01849188230E
:10013000C1F090E0880F991FFC01E057FF4FC59177
:10014000D491FC01EA57FF4FA591B4919FB7F89461
:100150008881E22FE0958E2388838C91E823EC93AD
:100160009FBFDF91CF910895AF92BF92CF92DF9260
:10017000EF92FF920F931F93CF93DF936C017B015C
:100180008B01040F151FEB015E01AE18BF08C017ED
:10019000D10759F06991D601ED91FC910190F08160
:1001A000E02DC6010995892B79F7C501DF91CF9123
:1001B0001F910F91FF90EF90DF90CF90BF90AF9085
:1001C0000895FC01538D448D252F30E0842F90E05D
:1001D000821B930B541710F0CF9608950197089542
:1001E000FC01918D828D981761F0A28DAE0FBF2F0B
:1001F000B11D5D968C91928D9F5F9F73928F90E061
:1002000008958FEF9FEF0895FC01918D828D9817CF
:1002100031F0828DE80FF11D858D90E008958FEF0C
:100220009FEF0895FC01918D228D892F90E0805CD5
:100230009F4F821B91098F739927089581E491E064
:100240000E94120121E0892B09F420E0822F0895F9
:1002500080E090E0892B29F00E941E0181110C940E
:1002600000000895FC01A48DA80FB92FB11DA35A59
:10027000BF4F2C91848D90E001968F739927848FC6
:10028000A689B7892C93A089B1898C9183708064E9
:100290008C93938D848D981306C00288F389E02D8A
:1002A00080818F7D80830895EF92FF920F931F933B
:1002B000CF93DF93EC0181E0888F9B8D8C8D981319
:1002C0001AC0E889F989808185FF15C09FB7F89425
:1002D000EE89FF896083E889F98980818370806471
:1002E00080839FBF81E090E0DF91CF911F910F91BC
:1002F000FF90EF900895F62E0B8D10E00F5F1F4FCB
:100300000F731127E02E8C8D8E110CC00FB607FCD9
:10031000FACFE889F989808185FFF5CFCE010E9467
:100320003201F1CFEB8DEC0FFD2FF11DE35AFF4FA2
:10033000F0829FB7F8940B8FEA89FB8980818062F5
:10034000CFCFCF93DF93EC01888D8823B9F0AA89B2
:10035000BB89E889F9898C9185FD03C0808186FD80
:100360000DC00FB607FCF7CF8C9185FFF2CF8081CF
:1003700085FFEDCFCE010E943201E9CFDF91CF9111
:10038000089590E0FC01EE58FF4F2491FC01E255E6
:10039000FF4F3491FC01E656FF4FE491EE23C1F18B
:1003A000222339F02330E9F090F4213001F122309A
:1003B00011F1F0E0EE0FFF1FE859FF4FA591B49146
:1003C000EC91E32381E090E029F580E00895273067
:1003D000A9F02830C9F0243061F7809180008F7D2A
:1003E00003C0809180008F7780938000E2CF84B536
:1003F0008F7784BDDECF84B58F7DFBCF8091B00039
:100400008F778093B000D5CF8091B0008F7DF9CFEA
:1004100080E090E008953FB7F89480913901909181
:100420003A01A0913B01B0913C0126B5A89B05C0C3
:100430002F3F19F00196A11DB11D3FBFBA2FA92F63
:10044000982F8827BC01CD01620F711D811D911D60
:1004500042E0660F771F881F991F4A95D1F70895CC
:1004600042E050E062E171E081E491E00C94B4007C
:100470001F920F920FB60F9211242F933F934F9319
:100480005F936F937F938F939F93AF93BF93EF93FC
:10049000FF9381E491E00E943201FF91EF91BF91BF
:1004A000AF919F918F917F916F915F914F913F910C
:1004B0002F910F900FBE0F901F9018951F920F92C3
:1004C0000FB60F9211242F938F939F93EF93FF9367
:1004D000E0915101F09152018081E0915701F0913A
:1004E000580182FD1BC0908180915A018F5F8F73EC
:1004F00020915B01821741F0E0915A01F0E0EF5B3F
:10050000FE4F958F80935A01FF91EF919F918F91AC
:100510002F910F900FBE0F901F9018958081F4CFF0
:100520001F920F920FB60F9211242F933F938F9328
:100530009F93AF93BF938091350190913601A09125
:100540003701B09138013091340123E0230F2D376A
:1005500058F50196A11DB11D2093340180933501FA
:1005600090933601A0933701B093380180913901FF
:1005700090913A01A0913B01B0913C010196A11DDF
:10058000B11D8093390190933A01A0933B01B09340
:100590003C01BF91AF919F918F913F912F910F900F
:1005A0000FBE0F901F90189526E8230F0296A11DED
:1005B000B11DD2CF789484B5826084BD84B581604A
:1005C00084BD85B5826085BD85B5816085BD80911E
:1005D0006E00816080936E00109281008091810096
:1005E000826080938100809181008160809381008E
:1005F000809180008160809380008091B100846050
:100600008093B1008091B00081608093B0008091B0
:100610007A00846080937A0080917A00826080936F
:100620007A0080917A00816080937A0080917A00CC
:10063000806880937A001092C100E0915101F0919E
:10064000520182E08083E0914D01F0914E011082D1
:10065000E0914F01F09150018FEC8083109259018D
:10066000E0915501F091560186E08083E0915301BD
:10067000F0915401808180618083E0915301F09179
:100680005401808188608083E0915301F09154018E
:10069000808180688083E0915301F09154018081D2
:1006A0008F7D808382E00E948C0083E00E948C001A
:1006B000C0E0D0E082E00E94C1017C019093400143
:1006C00080933F0183E00E94C10190933E0180939B
:1006D0003D01EA94EF2851F44EE050E065E171E00D
:1006E00081E491E00E94B4000E94300280913D01BB
:1006F00090913E01019751F44EE050E064E271E0C8
:1007000081E491E00E94B4000E9430020E940B023A
:100710004B015C0184EFC82EDD24D394E12CF12C35
:100720000E940B02681979098A099B09683E734087
:1007300081059105A8F381E0C81AD108E108F10804
:1007400028EE820E23E0921EA11CB11CC114D1041C
:10075000E104F10429F7209709F4ACCF0E941E01AF
:10076000882309F4A7CF0E940000A4CFE1E4F1E0C0
:100770001382128288EE93E0A0E0B0E08483958338
:10078000A683B78384E091E09183808385EC90E039
:100790009587848784EC90E09787868780EC90E04B
:1007A000918B808B81EC90E0938B828B82EC90E03C
:1007B000958B848B86EC90E0978B868B118E128EB6
:1007C000138E148E0895EE0FFF1F0590F491E02D07
:0607D0000994F894FFCF2C
:1007D600000000005401B400E100A1011201F00084
:1007E60004010D0A00427574746F6E203120507238
:1007F60065737300427574746F6E20322050726593
:040806007373000008
:00000001FF
